{
  "_format": "hh-sol-artifact-1",
  "contractName": "EDUToken",
  "sourceName": "contracts/EDUToken.sol",
  "abi": [
    {
      "inputs": [
        {
          "internalType": "uint256",
          "name": "initialSupply",
          "type": "uint256"
        }
      ],
      "stateMutability": "nonpayable",
      "type": "constructor"
    },
    {
      "inputs": [
        {
          "internalType": "address",
          "name": "spender",
          "type": "address"
        },
        {
          "internalType": "uint256",
          "name": "allowance",
          "type": "uint256"
        },
        {
          "internalType": "uint256",
          "name": "needed",
          "type": "uint256"
        }
      ],
      "name": "ERC20InsufficientAllowance",
      "type": "error"
    },
    {
      "inputs": [
        {
          "internalType": "address",
          "name": "sender",
          "type": "address"
        },
        {
          "internalType": "uint256",
          "name": "balance",
          "type": "uint256"
        },
        {
          "internalType": "uint256",
          "name": "needed",
          "type": "uint256"
        }
      ],
      "name": "ERC20InsufficientBalance",
      "type": "error"
    },
    {
      "inputs": [
        {
          "internalType": "address",
          "name": "approver",
          "type": "address"
        }
      ],
      "name": "ERC20InvalidApprover",
      "type": "error"
    },
    {
      "inputs": [
        {
          "internalType": "address",
          "name": "receiver",
          "type": "address"
        }
      ],
      "name": "ERC20InvalidReceiver",
      "type": "error"
    },
    {
      "inputs": [
        {
          "internalType": "address",
          "name": "sender",
          "type": "address"
        }
      ],
      "name": "ERC20InvalidSender",
      "type": "error"
    },
    {
      "inputs": [
        {
          "internalType": "address",
          "name": "spender",
          "type": "address"
        }
      ],
      "name": "ERC20InvalidSpender",
      "type": "error"
    },
    {
      "inputs": [
        {
          "internalType": "address",
          "name": "owner",
          "type": "address"
        }
      ],
      "name": "OwnableInvalidOwner",
      "type": "error"
    },
    {
      "inputs": [
        {
          "internalType": "address",
          "name": "account",
          "type": "address"
        }
      ],
      "name": "OwnableUnauthorizedAccount",
      "type": "error"
    },
    {
      "anonymous": false,
      "inputs": [
        {
          "indexed": true,
          "internalType": "address",
          "name": "owner",
          "type": "address"
        },
        {
          "indexed": true,
          "internalType": "address",
          "name": "spender",
          "type": "address"
        },
        {
          "indexed": false,
          "internalType": "uint256",
          "name": "value",
          "type": "uint256"
        }
      ],
      "name": "Approval",
      "type": "event"
    },
    {
      "anonymous": false,
      "inputs": [
        {
          "indexed": true,
          "internalType": "address",
          "name": "previousOwner",
          "type": "address"
        },
        {
          "indexed": true,
          "internalType": "address",
          "name": "newOwner",
          "type": "address"
        }
      ],
      "name": "OwnershipTransferred",
      "type": "event"
    },
    {
      "anonymous": false,
      "inputs": [
        {
          "indexed": true,
          "internalType": "address",
          "name": "from",
          "type": "address"
        },
        {
          "indexed": true,
          "internalType": "address",
          "name": "to",
          "type": "address"
        },
        {
          "indexed": false,
          "internalType": "uint256",
          "name": "value",
          "type": "uint256"
        }
      ],
      "name": "Transfer",
      "type": "event"
    },
    {
      "inputs": [
        {
          "internalType": "address",
          "name": "owner",
          "type": "address"
        },
        {
          "internalType": "address",
          "name": "spender",
          "type": "address"
        }
      ],
      "name": "allowance",
      "outputs": [
        {
          "internalType": "uint256",
          "name": "",
          "type": "uint256"
        }
      ],
      "stateMutability": "view",
      "type": "function"
    },
    {
      "inputs": [
        {
          "internalType": "address",
          "name": "spender",
          "type": "address"
        },
        {
          "internalType": "uint256",
          "name": "value",
          "type": "uint256"
        }
      ],
      "name": "approve",
      "outputs": [
        {
          "internalType": "bool",
          "name": "",
          "type": "bool"
        }
      ],
      "stateMutability": "nonpayable",
      "type": "function"
    },
    {
      "inputs": [
        {
          "internalType": "address",
          "name": "account",
          "type": "address"
        }
      ],
      "name": "balanceOf",
      "outputs": [
        {
          "internalType": "uint256",
          "name": "",
          "type": "uint256"
        }
      ],
      "stateMutability": "view",
      "type": "function"
    },
    {
      "inputs": [],
      "name": "decimals",
      "outputs": [
        {
          "internalType": "uint8",
          "name": "",
          "type": "uint8"
        }
      ],
      "stateMutability": "view",
      "type": "function"
    },
    {
      "inputs": [
        {
          "internalType": "address",
          "name": "to",
          "type": "address"
        }
      ],
      "name": "distributeReward",
      "outputs": [],
      "stateMutability": "nonpayable",
      "type": "function"
    },
    {
      "inputs": [],
      "name": "name",
      "outputs": [
        {
          "internalType": "string",
          "name": "",
          "type": "string"
        }
      ],
      "stateMutability": "view",
      "type": "function"
    },
    {
      "inputs": [],
      "name": "owner",
      "outputs": [
        {
          "internalType": "address",
          "name": "",
          "type": "address"
        }
      ],
      "stateMutability": "view",
      "type": "function"
    },
    {
      "inputs": [],
      "name": "renounceOwnership",
      "outputs": [],
      "stateMutability": "nonpayable",
      "type": "function"
    },
    {
      "inputs": [],
      "name": "symbol",
      "outputs": [
        {
          "internalType": "string",
          "name": "",
          "type": "string"
        }
      ],
      "stateMutability": "view",
      "type": "function"
    },
    {
      "inputs": [],
      "name": "totalSupply",
      "outputs": [
        {
          "internalType": "uint256",
          "name": "",
          "type": "uint256"
        }
      ],
      "stateMutability": "view",
      "type": "function"
    },
    {
      "inputs": [
        {
          "internalType": "address",
          "name": "to",
          "type": "address"
        },
        {
          "internalType": "uint256",
          "name": "value",
          "type": "uint256"
        }
      ],
      "name": "transfer",
      "outputs": [
        {
          "internalType": "bool",
          "name": "",
          "type": "bool"
        }
      ],
      "stateMutability": "nonpayable",
      "type": "function"
    },
    {
      "inputs": [
        {
          "internalType": "address",
          "name": "from",
          "type": "address"
        },
        {
          "internalType": "address",
          "name": "to",
          "type": "address"
        },
        {
          "internalType": "uint256",
          "name": "value",
          "type": "uint256"
        }
      ],
      "name": "transferFrom",
      "outputs": [
        {
          "internalType": "bool",
          "name": "",
          "type": "bool"
        }
      ],
      "stateMutability": "nonpayable",
      "type": "function"
    },
    {
      "inputs": [
        {
          "internalType": "address",
          "name": "newOwner",
          "type": "address"
        }
      ],
      "name": "transferOwnership",
      "outputs": [],
      "stateMutability": "nonpayable",
      "type": "function"
    }
  ],
  "bytecode": "0x608060405234801561001057600080fd5b50604051611be8380380611be88339818101604052810190610032919061051a565b336040518060400160405280600f81526020017f456475636174696f6e20546f6b656e00000000000000000000000000000000008152506040518060400160405280600381526020017f454455000000000000000000000000000000000000000000000000000000000081525081600390816100ae919061078d565b5080600490816100be919061078d565b505050600073ffffffffffffffffffffffffffffffffffffffff168173ffffffffffffffffffffffffffffffffffffffff16036101335760006040517f1e4fbdf700000000000000000000000000000000000000000000000000000000815260040161012a91906108a0565b60405180910390fd5b6101428161016c60201b60201c565b5061016633670de0b6b3a76400008361015b91906108ea565b61023260201b60201c565b506109c1565b6000600560009054906101000a900473ffffffffffffffffffffffffffffffffffffffff16905081600560006101000a81548173ffffffffffffffffffffffffffffffffffffffff021916908373ffffffffffffffffffffffffffffffffffffffff1602179055508173ffffffffffffffffffffffffffffffffffffffff168173ffffffffffffffffffffffffffffffffffffffff167f8be0079c531659141344cd1fd0a4f28419497f9722a3daafe3b4186f6b6457e060405160405180910390a35050565b600073ffffffffffffffffffffffffffffffffffffffff168273ffffffffffffffffffffffffffffffffffffffff16036102a45760006040517fec442f0500000000000000000000000000000000000000000000000000000000815260040161029b91906108a0565b60405180910390fd5b6102b6600083836102ba60201b60201c565b5050565b600073ffffffffffffffffffffffffffffffffffffffff168373ffffffffffffffffffffffffffffffffffffffff160361030c578060026000828254610300919061092c565b925050819055506103df565b60008060008573ffffffffffffffffffffffffffffffffffffffff1673ffffffffffffffffffffffffffffffffffffffff16815260200190815260200160002054905081811015610398578381836040517fe450d38c00000000000000000000000000000000000000000000000000000000815260040161038f9392919061096f565b60405180910390fd5b8181036000808673ffffffffffffffffffffffffffffffffffffffff1673ffffffffffffffffffffffffffffffffffffffff16815260200190815260200160002081905550505b600073ffffffffffffffffffffffffffffffffffffffff168273ffffffffffffffffffffffffffffffffffffffff16036104285780600260008282540392505081905550610475565b806000808473ffffffffffffffffffffffffffffffffffffffff1673ffffffffffffffffffffffffffffffffffffffff168152602001908152602001600020600082825401925050819055505b8173ffffffffffffffffffffffffffffffffffffffff168373ffffffffffffffffffffffffffffffffffffffff167fddf252ad1be2c89b69c2b068fc378daa952ba7f163c4a11628f55a4df523b3ef836040516104d291906109a6565b60405180910390a3505050565b600080fd5b6000819050919050565b6104f7816104e4565b811461050257600080fd5b50565b600081519050610514816104ee565b92915050565b6000602082840312156105305761052f6104df565b5b600061053e84828501610505565b91505092915050565b600081519050919050565b7f4e487b7100000000000000000000000000000000000000000000000000000000600052604160045260246000fd5b7f4e487b7100000000000000000000000000000000000000000000000000000000600052602260045260246000fd5b600060028204905060018216806105c857607f821691505b6020821081036105db576105da610581565b5b50919050565b60008190508160005260206000209050919050565b60006020601f8301049050919050565b600082821b905092915050565b6000600883026106437fffffffffffffffffffffffffffffffffffffffffffffffffffffffffffffffff82610606565b61064d8683610606565b95508019841693508086168417925050509392505050565b6000819050919050565b600061068a610685610680846104e4565b610665565b6104e4565b9050919050565b6000819050919050565b6106a48361066f565b6106b86106b082610691565b848454610613565b825550505050565b600090565b6106cd6106c0565b6106d881848461069b565b505050565b5b818110156106fc576106f16000826106c5565b6001810190506106de565b5050565b601f82111561074157610712816105e1565b61071b846105f6565b8101602085101561072a578190505b61073e610736856105f6565b8301826106dd565b50505b505050565b600082821c905092915050565b600061076460001984600802610746565b1980831691505092915050565b600061077d8383610753565b9150826002028217905092915050565b61079682610547565b67ffffffffffffffff8111156107af576107ae610552565b5b6107b982546105b0565b6107c4828285610700565b600060209050601f8311600181146107f757600084156107e5578287015190505b6107ef8582610771565b865550610857565b601f198416610805866105e1565b60005b8281101561082d57848901518255600182019150602085019450602081019050610808565b8683101561084a5784890151610846601f891682610753565b8355505b6001600288020188555050505b505050505050565b600073ffffffffffffffffffffffffffffffffffffffff82169050919050565b600061088a8261085f565b9050919050565b61089a8161087f565b82525050565b60006020820190506108b56000830184610891565b92915050565b7f4e487b7100000000000000000000000000000000000000000000000000000000600052601160045260246000fd5b60006108f5826104e4565b9150610900836104e4565b925082820261090e816104e4565b91508282048414831517610925576109246108bb565b5b5092915050565b6000610937826104e4565b9150610942836104e4565b925082820190508082111561095a576109596108bb565b5b92915050565b610969816104e4565b82525050565b60006060820190506109846000830186610891565b6109916020830185610960565b61099e6040830184610960565b949350505050565b60006020820190506109bb6000830184610960565b92915050565b611218806109d06000396000f3fe608060405234801561001057600080fd5b50600436106100cf5760003560e01c806370a082311161008c57806395d89b411161006657806395d89b4114610202578063a9059cbb14610220578063dd62ed3e14610250578063f2fde38b14610280576100cf565b806370a08231146101aa578063715018a6146101da5780638da5cb5b146101e4576100cf565b806306fdde03146100d4578063092193ab146100f2578063095ea7b31461010e57806318160ddd1461013e57806323b872dd1461015c578063313ce5671461018c575b600080fd5b6100dc61029c565b6040516100e99190610dda565b60405180910390f35b61010c60048036038101906101079190610e5f565b61032e565b005b61012860048036038101906101239190610ec2565b6103b2565b6040516101359190610f1d565b60405180910390f35b6101466103d5565b6040516101539190610f47565b60405180910390f35b61017660048036038101906101719190610f62565b6103df565b6040516101839190610f1d565b60405180910390f35b61019461040e565b6040516101a19190610fd1565b60405180910390f35b6101c460048036038101906101bf9190610e5f565b610417565b6040516101d19190610f47565b60405180910390f35b6101e261045f565b005b6101ec610473565b6040516101f99190610ffb565b60405180910390f35b61020a61049d565b6040516102179190610dda565b60405180910390f35b61023a60048036038101906102359190610ec2565b61052f565b6040516102479190610f1d565b60405180910390f35b61026a60048036038101906102659190611016565b610552565b6040516102779190610f47565b60405180910390f35b61029a60048036038101906102959190610e5f565b6105d9565b005b6060600380546102ab90611085565b80601f01602080910402602001604051908101604052809291908181526020018280546102d790611085565b80156103245780601f106102f957610100808354040283529160200191610324565b820191906000526020600020905b81548152906001019060200180831161030757829003601f168201915b5050505050905090565b610336610473565b73ffffffffffffffffffffffffffffffffffffffff163373ffffffffffffffffffffffffffffffffffffffff16146103a3576040517f08c379a000000000000000000000000000000000000000000000000000000000815260040161039a90611128565b60405180910390fd5b6103af3082600161065f565b50565b6000806103bd610753565b90506103ca81858561075b565b600191505092915050565b6000600254905090565b6000806103ea610753565b90506103f785828561076d565b61040285858561065f565b60019150509392505050565b60006012905090565b60008060008373ffffffffffffffffffffffffffffffffffffffff1673ffffffffffffffffffffffffffffffffffffffff168152602001908152602001600020549050919050565b610467610801565b6104716000610888565b565b6000600560009054906101000a900473ffffffffffffffffffffffffffffffffffffffff16905090565b6060600480546104ac90611085565b80601f01602080910402602001604051908101604052809291908181526020018280546104d890611085565b80156105255780601f106104fa57610100808354040283529160200191610525565b820191906000526020600020905b81548152906001019060200180831161050857829003601f168201915b5050505050905090565b60008061053a610753565b905061054781858561065f565b600191505092915050565b6000600160008473ffffffffffffffffffffffffffffffffffffffff1673ffffffffffffffffffffffffffffffffffffffff16815260200190815260200160002060008373ffffffffffffffffffffffffffffffffffffffff1673ffffffffffffffffffffffffffffffffffffffff16815260200190815260200160002054905092915050565b6105e1610801565b600073ffffffffffffffffffffffffffffffffffffffff168173ffffffffffffffffffffffffffffffffffffffff16036106535760006040517f1e4fbdf700000000000000000000000000000000000000000000000000000000815260040161064a9190610ffb565b60405180910390fd5b61065c81610888565b50565b600073ffffffffffffffffffffffffffffffffffffffff168373ffffffffffffffffffffffffffffffffffffffff16036106d15760006040517f96c6fd1e0000000000000000000000000000000000000000000000000000000081526004016106c89190610ffb565b60405180910390fd5b600073ffffffffffffffffffffffffffffffffffffffff168273ffffffffffffffffffffffffffffffffffffffff16036107435760006040517fec442f0500000000000000000000000000000000000000000000000000000000815260040161073a9190610ffb565b60405180910390fd5b61074e83838361094e565b505050565b600033905090565b6107688383836001610b73565b505050565b60006107798484610552565b90507fffffffffffffffffffffffffffffffffffffffffffffffffffffffffffffffff81146107fb57818110156107eb578281836040517ffb8f41b20000000000000000000000000000000000000000000000000000000081526004016107e293929190611148565b60405180910390fd5b6107fa84848484036000610b73565b5b50505050565b610809610753565b73ffffffffffffffffffffffffffffffffffffffff16610827610473565b73ffffffffffffffffffffffffffffffffffffffff16146108865761084a610753565b6040517f118cdaa700000000000000000000000000000000000000000000000000000000815260040161087d9190610ffb565b60405180910390fd5b565b6000600560009054906101000a900473ffffffffffffffffffffffffffffffffffffffff16905081600560006101000a81548173ffffffffffffffffffffffffffffffffffffffff021916908373ffffffffffffffffffffffffffffffffffffffff1602179055508173ffffffffffffffffffffffffffffffffffffffff168173ffffffffffffffffffffffffffffffffffffffff167f8be0079c531659141344cd1fd0a4f28419497f9722a3daafe3b4186f6b6457e060405160405180910390a35050565b600073ffffffffffffffffffffffffffffffffffffffff168373ffffffffffffffffffffffffffffffffffffffff16036109a057806002600082825461099491906111ae565b92505081905550610a73565b60008060008573ffffffffffffffffffffffffffffffffffffffff1673ffffffffffffffffffffffffffffffffffffffff16815260200190815260200160002054905081811015610a2c578381836040517fe450d38c000000000000000000000000000000000000000000000000000000008152600401610a2393929190611148565b60405180910390fd5b8181036000808673ffffffffffffffffffffffffffffffffffffffff1673ffffffffffffffffffffffffffffffffffffffff16815260200190815260200160002081905550505b600073ffffffffffffffffffffffffffffffffffffffff168273ffffffffffffffffffffffffffffffffffffffff1603610abc5780600260008282540392505081905550610b09565b806000808473ffffffffffffffffffffffffffffffffffffffff1673ffffffffffffffffffffffffffffffffffffffff168152602001908152602001600020600082825401925050819055505b8173ffffffffffffffffffffffffffffffffffffffff168373ffffffffffffffffffffffffffffffffffffffff167fddf252ad1be2c89b69c2b068fc378daa952ba7f163c4a11628f55a4df523b3ef83604051610b669190610f47565b60405180910390a3505050565b600073ffffffffffffffffffffffffffffffffffffffff168473ffffffffffffffffffffffffffffffffffffffff1603610be55760006040517fe602df05000000000000000000000000000000000000000000000000000000008152600401610bdc9190610ffb565b60405180910390fd5b600073ffffffffffffffffffffffffffffffffffffffff168373ffffffffffffffffffffffffffffffffffffffff1603610c575760006040517f94280d62000000000000000000000000000000000000000000000000000000008152600401610c4e9190610ffb565b60405180910390fd5b81600160008673ffffffffffffffffffffffffffffffffffffffff1673ffffffffffffffffffffffffffffffffffffffff16815260200190815260200160002060008573ffffffffffffffffffffffffffffffffffffffff1673ffffffffffffffffffffffffffffffffffffffff168152602001908152602001600020819055508015610d44578273ffffffffffffffffffffffffffffffffffffffff168473ffffffffffffffffffffffffffffffffffffffff167f8c5be1e5ebec7d5bd14f71427d1e84f3dd0314c0f7b2291e5b200ac8c7c3b92584604051610d3b9190610f47565b60405180910390a35b50505050565b600081519050919050565b600082825260208201905092915050565b60005b83811015610d84578082015181840152602081019050610d69565b60008484015250505050565b6000601f19601f8301169050919050565b6000610dac82610d4a565b610db68185610d55565b9350610dc6818560208601610d66565b610dcf81610d90565b840191505092915050565b60006020820190508181036000830152610df48184610da1565b905092915050565b600080fd5b600073ffffffffffffffffffffffffffffffffffffffff82169050919050565b6000610e2c82610e01565b9050919050565b610e3c81610e21565b8114610e4757600080fd5b50565b600081359050610e5981610e33565b92915050565b600060208284031215610e7557610e74610dfc565b5b6000610e8384828501610e4a565b91505092915050565b6000819050919050565b610e9f81610e8c565b8114610eaa57600080fd5b50565b600081359050610ebc81610e96565b92915050565b60008060408385031215610ed957610ed8610dfc565b5b6000610ee785828601610e4a565b9250506020610ef885828601610ead565b9150509250929050565b60008115159050919050565b610f1781610f02565b82525050565b6000602082019050610f326000830184610f0e565b92915050565b610f4181610e8c565b82525050565b6000602082019050610f5c6000830184610f38565b92915050565b600080600060608486031215610f7b57610f7a610dfc565b5b6000610f8986828701610e4a565b9350506020610f9a86828701610e4a565b9250506040610fab86828701610ead565b9150509250925092565b600060ff82169050919050565b610fcb81610fb5565b82525050565b6000602082019050610fe66000830184610fc2565b92915050565b610ff581610e21565b82525050565b60006020820190506110106000830184610fec565b92915050565b6000806040838503121561102d5761102c610dfc565b5b600061103b85828601610e4a565b925050602061104c85828601610e4a565b9150509250929050565b7f4e487b7100000000000000000000000000000000000000000000000000000000600052602260045260246000fd5b6000600282049050600182168061109d57607f821691505b6020821081036110b0576110af611056565b5b50919050565b7f4f6e6c79206f776e65722063616e20646973747269627574652072657761726460008201527f7300000000000000000000000000000000000000000000000000000000000000602082015250565b6000611112602183610d55565b915061111d826110b6565b604082019050919050565b6000602082019050818103600083015261114181611105565b9050919050565b600060608201905061115d6000830186610fec565b61116a6020830185610f38565b6111776040830184610f38565b949350505050565b7f4e487b7100000000000000000000000000000000000000000000000000000000600052601160045260246000fd5b60006111b982610e8c565b91506111c483610e8c565b92508282019050808211156111dc576111db61117f565b5b9291505056fea26469706673582212206ce079870d3c3d25da1423c1ccfc8a309ff983fdc34b1b9dac54428a6d29e77b64736f6c634300081b0033",
  "linkReferences": {},
  "deployedLinkReferences": {}
}