{
  "_format": "hh-sol-artifact-1",
  "contractName": "EDUToken",
  "sourceName": "contracts/EDUToken.sol",
  "abi": [
    {
      "inputs": [
        {
          "internalType": "uint256",
          "name": "initialSupply",
          "type": "uint256"
        }
      ],
      "stateMutability": "nonpayable",
      "type": "constructor"
    },
    {
      "inputs": [
        {
          "internalType": "address",
          "name": "spender",
          "type": "address"
        },
        {
          "internalType": "uint256",
          "name": "allowance",
          "type": "uint256"
        },
        {
          "internalType": "uint256",
          "name": "needed",
          "type": "uint256"
        }
      ],
      "name": "ERC20InsufficientAllowance",
      "type": "error"
    },
    {
      "inputs": [
        {
          "internalType": "address",
          "name": "sender",
          "type": "address"
        },
        {
          "internalType": "uint256",
          "name": "balance",
          "type": "uint256"
        },
        {
          "internalType": "uint256",
          "name": "needed",
          "type": "uint256"
        }
      ],
      "name": "ERC20InsufficientBalance",
      "type": "error"
    },
    {
      "inputs": [
        {
          "internalType": "address",
          "name": "approver",
          "type": "address"
        }
      ],
      "name": "ERC20InvalidApprover",
      "type": "error"
    },
    {
      "inputs": [
        {
          "internalType": "address",
          "name": "receiver",
          "type": "address"
        }
      ],
      "name": "ERC20InvalidReceiver",
      "type": "error"
    },
    {
      "inputs": [
        {
          "internalType": "address",
          "name": "sender",
          "type": "address"
        }
      ],
      "name": "ERC20InvalidSender",
      "type": "error"
    },
    {
      "inputs": [
        {
          "internalType": "address",
          "name": "spender",
          "type": "address"
        }
      ],
      "name": "ERC20InvalidSpender",
      "type": "error"
    },
    {
      "inputs": [
        {
          "internalType": "address",
          "name": "owner",
          "type": "address"
        }
      ],
      "name": "OwnableInvalidOwner",
      "type": "error"
    },
    {
      "inputs": [
        {
          "internalType": "address",
          "name": "account",
          "type": "address"
        }
      ],
      "name": "OwnableUnauthorizedAccount",
      "type": "error"
    },
    {
      "anonymous": false,
      "inputs": [
        {
          "indexed": true,
          "internalType": "address",
          "name": "owner",
          "type": "address"
        },
        {
          "indexed": true,
          "internalType": "address",
          "name": "spender",
          "type": "address"
        },
        {
          "indexed": false,
          "internalType": "uint256",
          "name": "value",
          "type": "uint256"
        }
      ],
      "name": "Approval",
      "type": "event"
    },
    {
      "anonymous": false,
      "inputs": [
        {
          "indexed": true,
          "internalType": "address",
          "name": "previousOwner",
          "type": "address"
        },
        {
          "indexed": true,
          "internalType": "address",
          "name": "newOwner",
          "type": "address"
        }
      ],
      "name": "OwnershipTransferred",
      "type": "event"
    },
    {
      "anonymous": false,
      "inputs": [
        {
          "indexed": true,
          "internalType": "address",
          "name": "from",
          "type": "address"
        },
        {
          "indexed": true,
          "internalType": "address",
          "name": "to",
          "type": "address"
        },
        {
          "indexed": false,
          "internalType": "uint256",
          "name": "value",
          "type": "uint256"
        }
      ],
      "name": "Transfer",
      "type": "event"
    },
    {
      "inputs": [
        {
          "internalType": "address",
          "name": "owner",
          "type": "address"
        },
        {
          "internalType": "address",
          "name": "spender",
          "type": "address"
        }
      ],
      "name": "allowance",
      "outputs": [
        {
          "internalType": "uint256",
          "name": "",
          "type": "uint256"
        }
      ],
      "stateMutability": "view",
      "type": "function"
    },
    {
      "inputs": [
        {
          "internalType": "address",
          "name": "spender",
          "type": "address"
        },
        {
          "internalType": "uint256",
          "name": "value",
          "type": "uint256"
        }
      ],
      "name": "approve",
      "outputs": [
        {
          "internalType": "bool",
          "name": "",
          "type": "bool"
        }
      ],
      "stateMutability": "nonpayable",
      "type": "function"
    },
    {
      "inputs": [
        {
          "internalType": "address",
          "name": "account",
          "type": "address"
        }
      ],
      "name": "balanceOf",
      "outputs": [
        {
          "internalType": "uint256",
          "name": "",
          "type": "uint256"
        }
      ],
      "stateMutability": "view",
      "type": "function"
    },
    {
      "inputs": [],
      "name": "decimals",
      "outputs": [
        {
          "internalType": "uint8",
          "name": "",
          "type": "uint8"
        }
      ],
      "stateMutability": "view",
      "type": "function"
    },
    {
      "inputs": [
        {
          "internalType": "address",
          "name": "to",
          "type": "address"
        }
      ],
      "name": "distributeReward",
      "outputs": [],
      "stateMutability": "nonpayable",
      "type": "function"
    },
    {
      "inputs": [],
      "name": "name",
      "outputs": [
        {
          "internalType": "string",
          "name": "",
          "type": "string"
        }
      ],
      "stateMutability": "view",
      "type": "function"
    },
    {
      "inputs": [],
      "name": "owner",
      "outputs": [
        {
          "internalType": "address",
          "name": "",
          "type": "address"
        }
      ],
      "stateMutability": "view",
      "type": "function"
    },
    {
      "inputs": [],
      "name": "renounceOwnership",
      "outputs": [],
      "stateMutability": "nonpayable",
      "type": "function"
    },
    {
      "inputs": [],
      "name": "symbol",
      "outputs": [
        {
          "internalType": "string",
          "name": "",
          "type": "string"
        }
      ],
      "stateMutability": "view",
      "type": "function"
    },
    {
      "inputs": [],
      "name": "totalSupply",
      "outputs": [
        {
          "internalType": "uint256",
          "name": "",
          "type": "uint256"
        }
      ],
      "stateMutability": "view",
      "type": "function"
    },
    {
      "inputs": [
        {
          "internalType": "address",
          "name": "to",
          "type": "address"
        },
        {
          "internalType": "uint256",
          "name": "value",
          "type": "uint256"
        }
      ],
      "name": "transfer",
      "outputs": [
        {
          "internalType": "bool",
          "name": "",
          "type": "bool"
        }
      ],
      "stateMutability": "nonpayable",
      "type": "function"
    },
    {
      "inputs": [
        {
          "internalType": "address",
          "name": "from",
          "type": "address"
        },
        {
          "internalType": "address",
          "name": "to",
          "type": "address"
        },
        {
          "internalType": "uint256",
          "name": "value",
          "type": "uint256"
        }
      ],
      "name": "transferFrom",
      "outputs": [
        {
          "internalType": "bool",
          "name": "",
          "type": "bool"
        }
      ],
      "stateMutability": "nonpayable",
      "type": "function"
    },
    {
      "inputs": [
        {
          "internalType": "address",
          "name": "newOwner",
          "type": "address"
        }
      ],
      "name": "transferOwnership",
      "outputs": [],
      "stateMutability": "nonpayable",
      "type": "function"
    }
  ],
  "bytecode": "0x608060405234801561001057600080fd5b50604051611c95380380611c9583398181016040528101906100329190610534565b336040518060400160405280600f81526020017f456475636174696f6e20546f6b656e00000000000000000000000000000000008152506040518060400160405280600381526020017f454455000000000000000000000000000000000000000000000000000000000081525081600390816100ae91906107a7565b5080600490816100be91906107a7565b505050600073ffffffffffffffffffffffffffffffffffffffff168173ffffffffffffffffffffffffffffffffffffffff16036101335760006040517f1e4fbdf700000000000000000000000000000000000000000000000000000000815260040161012a91906108ba565b60405180910390fd5b6101428161017d60201b60201c565b506101773361015561024360201b60201c565b600a6101619190610a44565b8361016c9190610a8f565b61024c60201b60201c565b50610b66565b6000600560009054906101000a900473ffffffffffffffffffffffffffffffffffffffff16905081600560006101000a81548173ffffffffffffffffffffffffffffffffffffffff021916908373ffffffffffffffffffffffffffffffffffffffff1602179055508173ffffffffffffffffffffffffffffffffffffffff168173ffffffffffffffffffffffffffffffffffffffff167f8be0079c531659141344cd1fd0a4f28419497f9722a3daafe3b4186f6b6457e060405160405180910390a35050565b60006012905090565b600073ffffffffffffffffffffffffffffffffffffffff168273ffffffffffffffffffffffffffffffffffffffff16036102be5760006040517fec442f050000000000000000000000000000000000000000000000000000000081526004016102b591906108ba565b60405180910390fd5b6102d0600083836102d460201b60201c565b5050565b600073ffffffffffffffffffffffffffffffffffffffff168373ffffffffffffffffffffffffffffffffffffffff160361032657806002600082825461031a9190610ad1565b925050819055506103f9565b60008060008573ffffffffffffffffffffffffffffffffffffffff1673ffffffffffffffffffffffffffffffffffffffff168152602001908152602001600020549050818110156103b2578381836040517fe450d38c0000000000000000000000000000000000000000000000000000000081526004016103a993929190610b14565b60405180910390fd5b8181036000808673ffffffffffffffffffffffffffffffffffffffff1673ffffffffffffffffffffffffffffffffffffffff16815260200190815260200160002081905550505b600073ffffffffffffffffffffffffffffffffffffffff168273ffffffffffffffffffffffffffffffffffffffff1603610442578060026000828254039250508190555061048f565b806000808473ffffffffffffffffffffffffffffffffffffffff1673ffffffffffffffffffffffffffffffffffffffff168152602001908152602001600020600082825401925050819055505b8173ffffffffffffffffffffffffffffffffffffffff168373ffffffffffffffffffffffffffffffffffffffff167fddf252ad1be2c89b69c2b068fc378daa952ba7f163c4a11628f55a4df523b3ef836040516104ec9190610b4b565b60405180910390a3505050565b600080fd5b6000819050919050565b610511816104fe565b811461051c57600080fd5b50565b60008151905061052e81610508565b92915050565b60006020828403121561054a576105496104f9565b5b60006105588482850161051f565b91505092915050565b600081519050919050565b7f4e487b7100000000000000000000000000000000000000000000000000000000600052604160045260246000fd5b7f4e487b7100000000000000000000000000000000000000000000000000000000600052602260045260246000fd5b600060028204905060018216806105e257607f821691505b6020821081036105f5576105f461059b565b5b50919050565b60008190508160005260206000209050919050565b60006020601f8301049050919050565b600082821b905092915050565b60006008830261065d7fffffffffffffffffffffffffffffffffffffffffffffffffffffffffffffffff82610620565b6106678683610620565b95508019841693508086168417925050509392505050565b6000819050919050565b60006106a461069f61069a846104fe565b61067f565b6104fe565b9050919050565b6000819050919050565b6106be83610689565b6106d26106ca826106ab565b84845461062d565b825550505050565b600090565b6106e76106da565b6106f28184846106b5565b505050565b5b818110156107165761070b6000826106df565b6001810190506106f8565b5050565b601f82111561075b5761072c816105fb565b61073584610610565b81016020851015610744578190505b61075861075085610610565b8301826106f7565b50505b505050565b600082821c905092915050565b600061077e60001984600802610760565b1980831691505092915050565b6000610797838361076d565b9150826002028217905092915050565b6107b082610561565b67ffffffffffffffff8111156107c9576107c861056c565b5b6107d382546105ca565b6107de82828561071a565b600060209050601f83116001811461081157600084156107ff578287015190505b610809858261078b565b865550610871565b601f19841661081f866105fb565b60005b8281101561084757848901518255600182019150602085019450602081019050610822565b868310156108645784890151610860601f89168261076d565b8355505b6001600288020188555050505b505050505050565b600073ffffffffffffffffffffffffffffffffffffffff82169050919050565b60006108a482610879565b9050919050565b6108b481610899565b82525050565b60006020820190506108cf60008301846108ab565b92915050565b7f4e487b7100000000000000000000000000000000000000000000000000000000600052601160045260246000fd5b60008160011c9050919050565b6000808291508390505b600185111561095b57808604811115610937576109366108d5565b5b60018516156109465780820291505b808102905061095485610904565b945061091b565b94509492505050565b6000826109745760019050610a30565b816109825760009050610a30565b816001811461099857600281146109a2576109d1565b6001915050610a30565b60ff8411156109b4576109b36108d5565b5b8360020a9150848211156109cb576109ca6108d5565b5b50610a30565b5060208310610133831016604e8410600b8410161715610a065782820a905083811115610a0157610a006108d5565b5b610a30565b610a138484846001610911565b92509050818404811115610a2a57610a296108d5565b5b81810290505b9392505050565b600060ff82169050919050565b6000610a4f826104fe565b9150610a5a83610a37565b9250610a877fffffffffffffffffffffffffffffffffffffffffffffffffffffffffffffffff8484610964565b905092915050565b6000610a9a826104fe565b9150610aa5836104fe565b9250828202610ab3816104fe565b91508282048414831517610aca57610ac96108d5565b5b5092915050565b6000610adc826104fe565b9150610ae7836104fe565b9250828201905080821115610aff57610afe6108d5565b5b92915050565b610b0e816104fe565b82525050565b6000606082019050610b2960008301866108ab565b610b366020830185610b05565b610b436040830184610b05565b949350505050565b6000602082019050610b606000830184610b05565b92915050565b61112080610b756000396000f3fe608060405234801561001057600080fd5b50600436106100cf5760003560e01c806370a082311161008c57806395d89b411161006657806395d89b4114610202578063a9059cbb14610220578063dd62ed3e14610250578063f2fde38b14610280576100cf565b806370a08231146101aa578063715018a6146101da5780638da5cb5b146101e4576100cf565b806306fdde03146100d4578063092193ab146100f2578063095ea7b31461010e57806318160ddd1461013e57806323b872dd1461015c578063313ce5671461018c575b600080fd5b6100dc61029c565b6040516100e99190610d74565b60405180910390f35b61010c60048036038101906101079190610df9565b61032e565b005b61012860048036038101906101239190610e5c565b61034c565b6040516101359190610eb7565b60405180910390f35b61014661036f565b6040516101539190610ee1565b60405180910390f35b61017660048036038101906101719190610efc565b610379565b6040516101839190610eb7565b60405180910390f35b6101946103a8565b6040516101a19190610f6b565b60405180910390f35b6101c460048036038101906101bf9190610df9565b6103b1565b6040516101d19190610ee1565b60405180910390f35b6101e26103f9565b005b6101ec61040d565b6040516101f99190610f95565b60405180910390f35b61020a610437565b6040516102179190610d74565b60405180910390f35b61023a60048036038101906102359190610e5c565b6104c9565b6040516102479190610eb7565b60405180910390f35b61026a60048036038101906102659190610fb0565b6104ec565b6040516102779190610ee1565b60405180910390f35b61029a60048036038101906102959190610df9565b610573565b005b6060600380546102ab9061101f565b80601f01602080910402602001604051908101604052809291908181526020018280546102d79061101f565b80156103245780601f106102f957610100808354040283529160200191610324565b820191906000526020600020905b81548152906001019060200180831161030757829003601f168201915b5050505050905090565b6103366105f9565b61034961034161040d565b826001610680565b50565b600080610357610774565b905061036481858561077c565b600191505092915050565b6000600254905090565b600080610384610774565b905061039185828561078e565b61039c858585610680565b60019150509392505050565b60006012905090565b60008060008373ffffffffffffffffffffffffffffffffffffffff1673ffffffffffffffffffffffffffffffffffffffff168152602001908152602001600020549050919050565b6104016105f9565b61040b6000610822565b565b6000600560009054906101000a900473ffffffffffffffffffffffffffffffffffffffff16905090565b6060600480546104469061101f565b80601f01602080910402602001604051908101604052809291908181526020018280546104729061101f565b80156104bf5780601f10610494576101008083540402835291602001916104bf565b820191906000526020600020905b8154815290600101906020018083116104a257829003601f168201915b5050505050905090565b6000806104d4610774565b90506104e1818585610680565b600191505092915050565b6000600160008473ffffffffffffffffffffffffffffffffffffffff1673ffffffffffffffffffffffffffffffffffffffff16815260200190815260200160002060008373ffffffffffffffffffffffffffffffffffffffff1673ffffffffffffffffffffffffffffffffffffffff16815260200190815260200160002054905092915050565b61057b6105f9565b600073ffffffffffffffffffffffffffffffffffffffff168173ffffffffffffffffffffffffffffffffffffffff16036105ed5760006040517f1e4fbdf70000000000000000000000000000000000000000000000000000000081526004016105e49190610f95565b60405180910390fd5b6105f681610822565b50565b610601610774565b73ffffffffffffffffffffffffffffffffffffffff1661061f61040d565b73ffffffffffffffffffffffffffffffffffffffff161461067e57610642610774565b6040517f118cdaa70000000000000000000000000000000000000000000000000000000081526004016106759190610f95565b60405180910390fd5b565b600073ffffffffffffffffffffffffffffffffffffffff168373ffffffffffffffffffffffffffffffffffffffff16036106f25760006040517f96c6fd1e0000000000000000000000000000000000000000000000000000000081526004016106e99190610f95565b60405180910390fd5b600073ffffffffffffffffffffffffffffffffffffffff168273ffffffffffffffffffffffffffffffffffffffff16036107645760006040517fec442f0500000000000000000000000000000000000000000000000000000000815260040161075b9190610f95565b60405180910390fd5b61076f8383836108e8565b505050565b600033905090565b6107898383836001610b0d565b505050565b600061079a84846104ec565b90507fffffffffffffffffffffffffffffffffffffffffffffffffffffffffffffffff811461081c578181101561080c578281836040517ffb8f41b200000000000000000000000000000000000000000000000000000000815260040161080393929190611050565b60405180910390fd5b61081b84848484036000610b0d565b5b50505050565b6000600560009054906101000a900473ffffffffffffffffffffffffffffffffffffffff16905081600560006101000a81548173ffffffffffffffffffffffffffffffffffffffff021916908373ffffffffffffffffffffffffffffffffffffffff1602179055508173ffffffffffffffffffffffffffffffffffffffff168173ffffffffffffffffffffffffffffffffffffffff167f8be0079c531659141344cd1fd0a4f28419497f9722a3daafe3b4186f6b6457e060405160405180910390a35050565b600073ffffffffffffffffffffffffffffffffffffffff168373ffffffffffffffffffffffffffffffffffffffff160361093a57806002600082825461092e91906110b6565b92505081905550610a0d565b60008060008573ffffffffffffffffffffffffffffffffffffffff1673ffffffffffffffffffffffffffffffffffffffff168152602001908152602001600020549050818110156109c6578381836040517fe450d38c0000000000000000000000000000000000000000000000000000000081526004016109bd93929190611050565b60405180910390fd5b8181036000808673ffffffffffffffffffffffffffffffffffffffff1673ffffffffffffffffffffffffffffffffffffffff16815260200190815260200160002081905550505b600073ffffffffffffffffffffffffffffffffffffffff168273ffffffffffffffffffffffffffffffffffffffff1603610a565780600260008282540392505081905550610aa3565b806000808473ffffffffffffffffffffffffffffffffffffffff1673ffffffffffffffffffffffffffffffffffffffff168152602001908152602001600020600082825401925050819055505b8173ffffffffffffffffffffffffffffffffffffffff168373ffffffffffffffffffffffffffffffffffffffff167fddf252ad1be2c89b69c2b068fc378daa952ba7f163c4a11628f55a4df523b3ef83604051610b009190610ee1565b60405180910390a3505050565b600073ffffffffffffffffffffffffffffffffffffffff168473ffffffffffffffffffffffffffffffffffffffff1603610b7f5760006040517fe602df05000000000000000000000000000000000000000000000000000000008152600401610b769190610f95565b60405180910390fd5b600073ffffffffffffffffffffffffffffffffffffffff168373ffffffffffffffffffffffffffffffffffffffff1603610bf15760006040517f94280d62000000000000000000000000000000000000000000000000000000008152600401610be89190610f95565b60405180910390fd5b81600160008673ffffffffffffffffffffffffffffffffffffffff1673ffffffffffffffffffffffffffffffffffffffff16815260200190815260200160002060008573ffffffffffffffffffffffffffffffffffffffff1673ffffffffffffffffffffffffffffffffffffffff168152602001908152602001600020819055508015610cde578273ffffffffffffffffffffffffffffffffffffffff168473ffffffffffffffffffffffffffffffffffffffff167f8c5be1e5ebec7d5bd14f71427d1e84f3dd0314c0f7b2291e5b200ac8c7c3b92584604051610cd59190610ee1565b60405180910390a35b50505050565b600081519050919050565b600082825260208201905092915050565b60005b83811015610d1e578082015181840152602081019050610d03565b60008484015250505050565b6000601f19601f8301169050919050565b6000610d4682610ce4565b610d508185610cef565b9350610d60818560208601610d00565b610d6981610d2a565b840191505092915050565b60006020820190508181036000830152610d8e8184610d3b565b905092915050565b600080fd5b600073ffffffffffffffffffffffffffffffffffffffff82169050919050565b6000610dc682610d9b565b9050919050565b610dd681610dbb565b8114610de157600080fd5b50565b600081359050610df381610dcd565b92915050565b600060208284031215610e0f57610e0e610d96565b5b6000610e1d84828501610de4565b91505092915050565b6000819050919050565b610e3981610e26565b8114610e4457600080fd5b50565b600081359050610e5681610e30565b92915050565b60008060408385031215610e7357610e72610d96565b5b6000610e8185828601610de4565b9250506020610e9285828601610e47565b9150509250929050565b60008115159050919050565b610eb181610e9c565b82525050565b6000602082019050610ecc6000830184610ea8565b92915050565b610edb81610e26565b82525050565b6000602082019050610ef66000830184610ed2565b92915050565b600080600060608486031215610f1557610f14610d96565b5b6000610f2386828701610de4565b9350506020610f3486828701610de4565b9250506040610f4586828701610e47565b9150509250925092565b600060ff82169050919050565b610f6581610f4f565b82525050565b6000602082019050610f806000830184610f5c565b92915050565b610f8f81610dbb565b82525050565b6000602082019050610faa6000830184610f86565b92915050565b60008060408385031215610fc757610fc6610d96565b5b6000610fd585828601610de4565b9250506020610fe685828601610de4565b9150509250929050565b7f4e487b7100000000000000000000000000000000000000000000000000000000600052602260045260246000fd5b6000600282049050600182168061103757607f821691505b60208210810361104a57611049610ff0565b5b50919050565b60006060820190506110656000830186610f86565b6110726020830185610ed2565b61107f6040830184610ed2565b949350505050565b7f4e487b7100000000000000000000000000000000000000000000000000000000600052601160045260246000fd5b60006110c182610e26565b91506110cc83610e26565b92508282019050808211156110e4576110e3611087565b5b9291505056fea26469706673582212207c669662097fa249bcc6ae0eb07ea321492c4103028645e488ec03d71268db3d64736f6c634300081b0033",
  "linkReferences": {},
  "deployedLinkReferences": {}
}